:020000040800F2
:1000000068040020AD010008250E00081D0E000840
:10001000210E0008950200086D1000080000000085
:100020000000000000000000000000002D0E00088D
:100030009902000800000000290E0008310E000897
:10004000C7010008C7010008C7010008C701000870
:10005000C7010008C7010008C7010008C701000860
:10006000C7010008C7010008C7010008C701000850
:10007000C7010008C7010008C7010008C701000840
:10008000C7010008C7010008C70100080000000000
:10009000000000000000000000000000C701000890
:1000A000C7010008C7010008C7010008C701000810
:1000B000C7010008C7010008C7010008C701000800
:1000C000C7010008C7010008C7010008C7010008F0
:1000D000C7010008C7010008C701000800000000B0
:1000E000C7010008C7010008C701000800000000A0
:1000F000000000000000000000000000C701000830
:1001000000000000C7010008C7010008C70100087F
:1001100000000000000000000000000000000000DF
:10012000C7010008C7010008C7010008C70100088F
:10013000C7010008000000000000000000000000EF
:10014000000000000000000000000000C7010008DF
:10015000C7010008C7010008C7010008C70100085F
:10016000C7010008C70100080000000000000000EF
:10017000000000000000000000000000000000007F
:1001800000000000C701000800000000000000009F
:10019000C7010008C7010008DFF80CD000F068F8BC
:1001A00000480047451200086804002006488047C0
:1001B00006480047FEE7FEE7FEE7FEE7FEE7FEE74C
:1001C000FEE7FEE7FEE7FEE7E10E00089901000802
:1001D0002DE9F05F0546002092469B46884606467C
:1001E000814640241BE0284641464746224600F00F
:1001F0002FF853465A46C01A914110D3114618465B
:10020000224600F016F82D1A67EB01084F462246E9
:100210000120002100F00DF817EB00094E41201ECF
:10022000A4F10104DFDC484631462A464346BDE8D6
:10023000F09F202A04DB203A00FA02F100207047E8
:100240009140C2F1200320FA03F319439040704714
:10025000202A04DB203A21FA02F00021704721FA1B
:1002600002F3D040C2F12002914008431946704782
:10027000064C074D06E0E06840F0010394E80700F3
:1002800098471034AC42F6D3FFF78AFF10150008E8
:1002900030150008FEE7000070470000EFF3108003
:1002A00072B600BFFEE700002DE9F04F82B000F10A
:1002B0003E4241F2000502F1FF77C4F20205072237
:1002C00043F6004E4FEAB726A84208BF0422C4F204
:1002D000010E042E38BF4FEAB72201250026002761
:1002E0004FF00008009208E008F101080437B8F167
:1002F000100F06F1020600F0A6800C6805FA08F956
:1003000014EA090FF0D0D1F804B003220BF0030C6B
:10031000ACF10104B240012C6FEA020A10D88268E5
:10032000CC6802EA0A02B440224382604268CBF3FE
:10033000001422EA090204FA08F42243426005E0AC
:10034000BCF1030F02D14FF0030C20E0C2688C68AF
:1003500002EA0A02B4402243BCF1020FC26016D185
:100360006FF0030202EA58020244D2F820C007F0FC
:100370001C050F230C69AB402CEA030304FA05F5B6
:100380002B431362D1F804B001250BF0030C026873
:100390000CFA06F302EA0A021A431BF4403F026019
:1003A000A2D0002243F644030192C4F202031A6869
:1003B0004FF6084C42F480421A601A68CFF6FF7C70
:1003C00002F480420192019A28F00302724452F82A
:1003D0000C3007F00C050F24AC40A343009C04FA3A
:1003E00005F52B4342F80C30DEF808204B6842EA52
:1003F000090543F60C4CDC0258BF22EA0905CEF889
:100400000850C4F2010CDCF800209C0242EA090505
:1004100058BF22EA0905CCF80050DEF804209C03FE
:1004200042EA090558BF22EA0905CEF80450DEF871
:100430000020DB0342EA090558BF22EA0905CEF88D
:100440000050012550E702B0BDE8F08F40F2640093
:10045000C2F200000068704740F2080040F26401F8
:10046000C2F20000C2F2000100680A68104408608D
:100470007047000080B543F60040C4F202000168F6
:1004800041F400710160016841F48061016001681C
:1004900041F480710160032000F078F80F2000F033
:1004A00005F800F02BF8002080BD0000B0B540F248
:1004B0000802C2F2000240F204011268C2F2000116
:1004C0004FF47A730968B3FBF2F20446B1FBF2F120
:1004D000084600F027FB0F2C4FF001050CD858B947
:1004E0004FF0FF3021460022002500F023F840F2B3
:1004F0000C00C2F2000004602846B0BD82B00020AB
:1005000043F640010190C4F202014A6842F480427D
:100510004A604A6802F480420192019A0090086899
:1005200040F080500860086800F08050009000980B
:1005300002B0704710B54EF60C5CCEF2000CDCF841
:100540000030C3F3022E8EF00704042C28BF0424CD
:10055000BEF103034FF0FF3E0EFA04F438BF002350
:10056000A14399400EFA03F39A43114300F00F029E
:1005700000F160430901043A03F564436244002832
:1005800048BF02F10C03197010BD00004EF60C516B
:10059000CEF200010A684FF6FF031A4060F30A2208
:1005A00042F0806040F0FD70086070472DE9F04136
:1005B000002800F08B8043F60808C4F202080446C5
:1005C000D8F8F8030D4600F00700884207D288F8F3
:1005D000F853D8F8F80300F00700A84276D1206855
:1005E000810717D5410705D5D8F8001041F4E0512F
:1005F000C8F80010010705D5D8F8001041F4604193
:10060000C8F80010D8F80010A26821F0F0011143DA
:10061000C8F80010C0073FD1D8F8F80300F0070071
:10062000A84207D988F8F853D8F8F80300F0070073
:10063000A8424BD12068410707D5D8F80010E268DE
:1006400021F4E0511143C8F80010000708D5D8F88C
:100650000000216920F4604040EAC100C8F80000B1
:1006600000F07CF8D8F8001041F2F842C1F3031111
:10067000C0F60002515C40F2040220FA01F140F29F
:100680000C00C2F200000068C2F200021160FFF725
:100690000DFF0020BDE8F0816068811E022907D2AD
:1006A00058F8081C89015CBF0120BDE8F08110E00A
:1006B000012807D158F8081C89035CBF0120BDE858
:1006C000F08106E058F8081C890702D40120BDE833
:1006D000F081D8F8001021F003010843C8F80000A9
:1006E000FFF7B4FE064641F2883700BFD8F8000095
:1006F000616800F00C00B0EB810F8DD0FFF7A6FE13
:10070000801BB842F2D90320BDE8F08140F204001A
:1007100043F60801C2F20000C4F202010068096851
:1007200041F20852C1F38221C0F60002515CC84078
:100730007047000040F2040043F60801C2F20000D6
:10074000C4F202010068096841F20852C1F3423163
:10075000C0F60002515CC8407047000010B543F677
:100760000404C4F20204606800F00C0008280AD0F7
:10077000042819BF42F20040C0F2F40047F64000DE
:10078000C0F27D1010BD206821682368490247F639
:100790004001C0F27D1100F03F02C3F388105CBF3E
:1007A00042F20041C0F2F401A1FB00010023FFF777
:1007B0000FFD21680222C1F3014102EB4101B0FBB0
:1007C000F1F010BD2DE9F04182B0002868D0044658
:1007D000007843F60006C007C4F202060BD0B068EA
:1007E00000F00C00042840F09C803068800302D5A3
:1007F0006068002854D0207880071AD5B06810F0BF
:100800000C0F09D0B06800F00C00082840F0A3805D
:100810007068400200F19F803068800702D5E06870
:1008200001283DD13068216920F0F80040EAC1007C
:1008300030602078000737D4207840074BD4A56972
:1008400055B3B06800F00C00082840F0B780012DC7
:1008500026D07068E16900F480028A4220D1216AC2
:1008600000F03F028A421BD147F6C071626A014024
:10087000B1EB821F14D1A16A4FF6FF73C9039943EC
:1008800000F44032A1F580318A4209D1E16A00F0DA
:100890007060B0EB016F03D1002002B0BDE8F081C1
:1008A000012002B0BDE8F0816069002840F200003C
:1008B000C4F2472072D00121C0F8801EFFF7C6FDA8
:1008C000054600BF706F8007B6D4FFF7BFFD401B21
:1008D0000228F7D9D7E0306C10F080580AD10020F8
:1008E0000190306C40F080503064306C00F08050EB
:1008F0000190019847F20007C4F200073868C0056C
:100900003ED4386840F480703860FFF79FFD05469C
:100910003868C00534D4FFF799FD401B0228F7D989
:10092000B1E0B06800F00C00082803D17068400204
:100930003FF55BAF6068B0F5803F07D0B0F5A02F02
:1009400040F08B80306840F480203060306840F4A4
:10095000803030608BE0E068002851D00020C4F285
:10096000472001210160FFF771FD054630688007CF
:100970003FF558AFFFF76AFD401B0228F6D982E029
:10098000A068012805D005284ED1306F40F0040042
:100990003067306F40F0010030674FE00021C0F851
:1009A000801EFFF753FD0546706F80077FF544AF4B
:1009B000FFF74CFD401B0228F6D964E00027C4F283
:1009C000472700203866FFF741FD022D05460BD171
:1009D000306880015BD5FFF739FD401B02284FF0DE
:1009E0000300F5D959E700BF306880017FF554AFA7
:1009F000FFF72CFD401B02284FF00300F4D94CE711
:100A00000020C4F2472000210160FFF71FFD0546CA
:100A1000306880077FF50DAFFFF718FD401B0228F7
:100A20004FF00300F4D938E7316F002821F00101BD
:100A30003167316F21F00401316749D0FFF706FDBE
:100A4000054641F2883700BF306F800751D4FFF769
:100A5000FDFC401BB842F7D915E03168002821F4AD
:100A600080313160316821F4802131604AD0FFF754
:100A7000EDFC0546306880033FF5BDAEFFF7E6FCB0
:100A8000401B6428F6D9032002B0BDE8F08104F1D0
:100A90001C052FCD084340EA8210D9034FF6FF72A0
:100AA0009143A1F5803140EA056008437060012060
:100AB0003866FFF7CBFC0446306880013FF5ECAEAA
:100AC000FFF7C4FC001B02284FF00300F4D9E4E652
:100AD000FFF7BCFC054641F2883700BF306F800746
:100AE00007D5FFF7B3FC401BB8424FF00300F5D920
:100AF000D3E6B8F1000F7FF4A2AE306C20F0805046
:100B000030649CE6FFF7A2FC054600BF3068800316
:100B10007FF571AEFFF79AFC401B64284FF003008D
:100B2000F4D9BAE6411E0020B0EB116F1CBF0120C2
:100B300070474EF21002CEF2000251604EF6235181
:100B4000CEF20001F0230B70072190601160704716
:100B5000002804BF0120704710B50446006C20B97E
:100B60000020E063204600F01DF824202064206867
:100B7000C16821F40051C160204600F001FA2068EC
:100B8000016921F490410161416921F02A0141612B
:100B9000C16841F40051C16000202021A06421649B
:100BA000616410BD704700002DE9F04381B0044638
:100BB000006C20280CD10D4600294FF0010000F0F8
:100BC0002A811646002A00F02681E06B012803D115
:100BD000022001B0BDE8F0830120E0630020A064A2
:100BE000212098462064FFF731FCA684E684A168A2
:100BF0008146B1F5805F01D1206910B12F460025F3
:100C000000E000270020E063E08C002800F08280F4
:100C1000206808F1010609E087B117F8011B41605F
:100C2000E18C0139E184E18C002974D00168090666
:100C3000F2D44EB1B8F1000F17D11FE035F8021B06
:100C400000276FF35F21EAE701680906E4D466B97B
:100C500001680906E0D446B901680906DCD426B962
:100C600001680906D8D4002EEED0FFF7EFFBA0EB09
:100C70000900404502D82068E6E700BF206850E838
:100C8000030F216820F4D07041E80302E2B120682C
:100C900050E8030F216820F4D07041E803029AB1B4
:100CA000206850E8030F216820F4D07041E8030267
:100CB00052B1206850E8030F216820F4D07041E859
:100CC0000302002ADAD100BF206850E8050F21682E
:100CD00020F0010041E805023AB3206850E8050F12
:100CE000216820F0010041E80502F2B1206850E8D7
:100CF000050F216820F0010041E80502AAB1206833
:100D000050E8050F216820F0010041E80502002AA3
:100D1000DAD10AE020680168490679D418F10105A2
:100D20005CD0B8F1000F09D069E020202064606435
:100D30000020E063032001B0BDE8F083206850E8A4
:100D4000030F216820F4D07041E80302D2B3206879
:100D500050E8030F216820F4D07041E803028AB301
:100D6000206850E8030F216820F4D07041E80302A6
:100D700042B3206850E8030F216820F4D07041E8A6
:100D80000302002ADAD11DE0206850E8050F21682F
:100D900020F0010041E80502002AC6D0206850E892
:100DA000050F216820F0010041E80502002ABCD0AF
:100DB000206850E8050F216820F0010041E8050295
:100DC000002AB2D0206850E8050F216820F0010009
:100DD00041E80502002AD7D1A7E700BF016849060C
:100DE00016D465B90168490612D445B901684906A7
:100DF0000ED425B9016849060AD4002DEED0FFF7BC
:100E000025FBA0EB090040453FF698AF2068E5E7D9
:100E100020202064002001B0BDE8F083FEE7000040
:100E2000FEE70000FEE7000070470000704700008A
:100E3000FFF712BBB0B592B0002443F640000B940C
:100E4000CDE90944CDE907440594CDE90344CDE952
:100E500001440094C4F202000168022541F080516F
:100E60000160006800F080500090009847F2000098
:100E70000094C4F20000016841F440410160006840
:100E800000F44040009000980120099010200A9042
:100E900008200E906420CDE90F050420119006A8CB
:100EA0000695CDE90C54FFF78DFC20B1EFF31080CF
:100EB00072B600BFFEE70F20CDE901054FF4805068
:100EC000CDE9040401A803210394FFF76FFB20B1CF
:100ED000EFF3108072B600BFFEE712B0B0BD0000A5
:100EE0004EF68850CEF20000016841F470010160B6
:100EF00070470000B0B586B0002443F6300001947E
:100F0000C4F20200416941F2000541F01001416163
:100F10004169C4F2010501F01001019101990194A8
:100F2000016841F001010160006801A900F00100C1
:100F3000019001984FF4C06001900220CDE90204B5
:100F4000032004900720059005F57040FFF7ACF9E9
:100F500040F21800C2F200004FF4E1310C22C0E967
:100F60000051C0E90244C0E90442C0E90644FFF769
:100F7000EFFD002818BFFFF791F906B0B0BD0000E3
:100F800010B504460068D4E902C22369016921F45E
:100F9000405111430161626943EA0C01E369114365
:100FA000C268194349F20C639A431143C160416915
:100FB000A26921F4407141F20043114340F4806280
:100FC000C4F201039A42416102D1FFF7B3FB01E091
:100FD000FFF79CFBE16963681922B1F5004FA0FBA4
:100FE000020121D15A00DB0FFFF7F2F848F21F513E
:100FF000C5F2EB11A0FB01235A094FF69C73C0F612
:10100000FF7303F1805302FB0300322303EBC000A4
:10101000A0FB01014FF4F87000EA111000EB021080
:10102000C1F3421108441DE09A009B0FFFF7D0F86E
:1010300048F21F51C5F2EB11A0FB01235A094FF6EC
:101040009C73C0F6FF7302FB0300322303EB001016
:10105000A0FB0101F02000EA511000EB0210C1F3E7
:10106000431108442168886010BD0000FEE70000BD
:101070004EF6FC50CEF20000016841F08071016034
:1010800041F20000CEF2000000214160016841F011
:101090000101016040F20400C2F2000000684DF658
:1010A0008361C4F21B31A0FB0101880C40F21001E6
:1010B000C2F200010860704710B5002844D040F229
:1010C0001002C2F20002126841F204014FF47A7376
:1010D000CEF200015A4310F0030EA0F1010C2FD004
:1010E0000B6800BF0C68E41A94420BD20C68E41A37
:1010F000944207D20C68E41A944203D20C68E41AB2
:101100009442EFD3BEF1010F63461AD00B6800BFC3
:101110000C68E41A94420BD20C68E41A944207D289
:101120000C68E41A944203D20C68E41A9442EFD398
:10113000BEF1020F09D1831EBCF1030F1FD203E0E1
:101140000346BCF1030F1AD210BD0B680C68E41AF9
:1011500094420BD20C68E41A944207D20C68E41A49
:10116000944203D20C68E41A9442EFD3C31EBCF13C
:10117000030F04D2E8E700BF043B08BF10BD0868B6
:101180000C68241A94420BD20C68241A944207D299
:101190000C68241A944203D20C68241A9442EFD3A8
:1011A000086800BF0C68241A94420BD20C68241AF9
:1011B000944207D20C68241A944203D20C68241A71
:1011C0009442EFD3086800BF0C68241A94420BD2F3
:1011D0000C68241A944207D20C68241A944203D251
:1011E0000C68241A9442EFD3086800BF0C68241AD4
:1011F0009442C1D20C68241A9442BDD20C68241ABD
:101200009442B9D20C68241A9442EFD3B4E7000098
:1012100010B582B004468DF8070040F21400C2F207
:101220000000007801280AD140F21800C2F2000044
:101230000DF1070101224FF6FF73FFF7B5FC2046C1
:1012400002B010BDFFF716F9FFF7F4FDFFF710FF2E
:10125000FFF750FE06A400BFFFF7F8F8014620464E
:1012600000F014F84FF47A70FFF726FFF4E700BFA0
:1012700043595F574154434820616C6976653A2071
:10128000256C75206D730D0A000000000FB4054B2E
:1012900010B503A9044A029800F018F810BC5DF8D4
:1012A00014FB0000111200080000002002E008C832
:1012B000121F08C1002AFAD170477047002001E0D0
:1012C00001C1121F002AFBD1704700002DE9FF4F1A
:1012D0008BB09A460F460446002606E025280BD020
:1012E00052460D999047641C761C20780028F5D151
:1012F0000FB03046BDE8F08F0025A94601227D4998
:1013000000E0054314F8013F203B02FA03F00842D5
:10131000F7D120782E2817D114F8010F45F00405D5
:101320002A280ED06FF02F022078A0F13001092971
:101330000AD809EB890102EB410100EB0109641CA9
:10134000F2E757F8049B641C20786C280DD004DC6D
:101350004C2812D06A2811D104E074280DD07A28C4
:101360000CD10AE045F4001507E0617845F48015DA
:10137000814202D1641C05F58015641C207869281F
:101380003ED006DC0028B3D063280BD0642804D1FB
:1013900036E0732810D075285CD052460D999047DE
:1013A000761CA5E017F8040B8DF8000000208DF8DE
:1013B0000100E846012003E057F8048B4FF0FF30AE
:1013C00069074FF0000501D40AE06D1C4D450DDAA8
:1013D0008542FADB18F805100029F6D106E06D1CED
:1013E0008542FCDB18F805100029F8D12E4404E0F2
:1013F00018F8010B52460D9990476D1EF8D277E010
:1014000000200A90C5F302504FF00A0B02280CD0BE
:1014100001CFC117021E71F100020CDA0023D0EBDC
:10142000030063EB01012D2208E0FF1D27F00707F1
:10143000F7E80201EEE72A0504D52B228DF82420D7
:10144000012203E0EA070FD02022F7E70DF1200880
:10145000089218E000200A90C5F302504FF00A0BE2
:10146000022803D001CF00210022EFE7FF1D27F063
:101470000707F7E80201F7E75A460A9BFEF7A8FEBE
:10148000303208F8012D50EA0102F5D1ADEB080029
:1014900000F1200B680701D44FF00109D94502DDA6
:1014A000A9EB0B0000E000208146002506E009A81A
:1014B0005246405D0D9990476D1C761C08988542F8
:1014C000F5DB04E0302052460D999047761CB9F1C7
:1014D0000001A9F10109F5DC05E018F8010B5246FD
:1014E0000D999047761CBBF10001ABF1010BF4DCC8
:1014F000641CFAE60928010000000000000000005A
:1015000001020304060708090000000001020304A9
:10151000301500080000002010000000AC12000888
:10152000401500081000002058040000BC120008FC
:10153000000000000024F400010000001000000082
:040000050800019955
:00000001FF
